{
  "transactions": [
    {
      "hash": "0xe7069386774c1f8590ee4e49b31955265e1bc6f57569415788263a7cf8c7827c",
      "transactionType": "CALL",
      "contractName": null,
      "contractAddress": "0x61db50e925cab4a4852045e0dab6aad77c7848a0",
      "function": "mintNft(string)",
      "arguments": [
        "ipfs://Qmf5Q5aZbB1UJf3YT9R2T6dRBpqTL8bd63TR7hRekKorbD"
      ],
      "transaction": {
        "from": "0x984d18688f5ea45257aa6a48bc7f2f01b2c96e42",
        "to": "0x61db50e925cab4a4852045e0dab6aad77c7848a0",
        "gas": "0x38de9",
        "value": "0x0",
        "input": "0xda86f4a900000000000000000000000000000000000000000000000000000000000000200000000000000000000000000000000000000000000000000000000000000035697066733a2f2f516d66355135615a624231554a6633595439523254366452427071544c38626436335452376852656b4b6f7262440000000000000000000000",
        "nonce": "0xe",
        "chainId": "0xaa36a7"
      },
      "additionalContracts": [],
      "isFixedGasLimit": false
    }
  ],
  "receipts": [
    {
      "status": "0x1",
      "cumulativeGasUsed": "0x633e67",
      "logs": [
        {
          "address": "0x61db50e925cab4a4852045e0dab6aad77c7848a0",
          "topics": [
            "0xddf252ad1be2c89b69c2b068fc378daa952ba7f163c4a11628f55a4df523b3ef",
            "0x0000000000000000000000000000000000000000000000000000000000000000",
            "0x000000000000000000000000984d18688f5ea45257aa6a48bc7f2f01b2c96e42",
            "0x0000000000000000000000000000000000000000000000000000000000000000"
          ],
          "data": "0x",
          "blockHash": "0xc6969b0b495616b5eb4979447a11925c9ae43cbfa8a73ee59e30e3ceac848b5e",
          "blockNumber": "0x710c1e",
          "transactionHash": "0xe7069386774c1f8590ee4e49b31955265e1bc6f57569415788263a7cf8c7827c",
          "transactionIndex": "0x34",
          "logIndex": "0x54",
          "removed": false
        }
      ],
      "logsBloom": "0x00000000000000000000000000000000000000000000000000000000000000000000000048000000000080000000000000000000000000020000000000000000000000000000000000000008000000000000000000000000000000000000000000000000020000000000000000000800000000000000000000000010000000000000000000000000000000000000000000000000000000001000000000000000000000000000000000000000000000000000000000000000000000000000000000000002000000000000000000000000000000000000000000000000000020000000000000000000000000000000000000000000000000000001000000000000",
      "type": "0x2",
      "transactionHash": "0xe7069386774c1f8590ee4e49b31955265e1bc6f57569415788263a7cf8c7827c",
      "transactionIndex": "0x34",
      "blockHash": "0xc6969b0b495616b5eb4979447a11925c9ae43cbfa8a73ee59e30e3ceac848b5e",
      "blockNumber": "0x710c1e",
      "gasUsed": "0x26e2a",
      "effectiveGasPrice": "0xb52f81c8",
      "from": "0x984d18688f5ea45257aa6a48bc7f2f01b2c96e42",
      "to": "0x61db50e925cab4a4852045e0dab6aad77c7848a0",
      "contractAddress": null
    }
  ],
  "libraries": [],
  "pending": [],
  "returns": {},
  "timestamp": 1735854541,
  "chain": 11155111,
  "commit": "3b2c3bb"
}